:1000000000000120D904000025050000290500009A
:10001000210500002105000021050000000000006E
:10002000000000000000000000000000212D010081
:100030002105000000000000312F0100A12F010068
:10004000390500003D0500004105000045050000A0
:10005000490500004D050000510500005505000050
:10006000590500005D050000610500006505000000
:10007000690500006D0500007105000075050000B0
:100080007905000021050000210500002105000080
:1000900021050000210500002105000021050000C8
:1000A0007D05000081050000850500008905000030
:1000B0008D050000910500009505000099050000E0
:1000C0009D050000A1050000A5050000A905000090
:1000D000AD050000210500002105000021050000FC
:1000E0002105000021050000210500002105000078
:1000F0002105000021050000210500002105000068
:100100002105000021050000210500002105000057
:100110002105000021050000210500002105000047
:100120002105000021050000210500002105000037
:1001300021050000D917000021050000210500005D
:100140002105000021050000210500002105000017
:100150002105000021050000210500002105000007
:1001600021050000210500002105000021050000F7
:1001700021050000210500002105000021050000E7
:1003F000210500002105000021050000FFFFFFFF8F
:10040000FFFFFFFFFFFFFFFFFFFFFFFFFEFFFFFFFD
:1004100010B5054C237833B9044B13B10448AFF33E
:1004200000800123237010BDCC00FF1F00000000DE
:10043000C8D7010008B5064B1BB106480649AFF303
:1004400000800648036813B1054B03B1984708BD07
:1004500000000000C8D70100D000FF1FC800FF1F28
:1004600000000000154B002B08BF134B9D46A3F561
:10047000803A00218B460F461348144A121A19F08D
:1004800012FA0F4B002B00D098470E4B002B00D0D8
:1004900098470020002104000D000D48002802D0DC
:1004A0000C48AFF3008019F0A5F92000290011F0E5
:1004B00037FB19F08BF900BF000008000000012095
:1004C0000000000000000000CC00FF1F9057FF1F3D
:1004D000000000000000000072B60A480A490160EE
:1004E0000A6882F30888094880470949094A0A4B83
:1004F0009A42BEBF51F8040B42F8040BF8E762B60B
:100500000648804708ED00E00000000091970100D8
:10051000F0D701000000FF1FCC00FF1F65040000A2
:10052000FFF7FEBF22480047224800472248004705
:1005300022480047224800472248004722480047F7
:1005400022480047224800472248004722480047E7
:1005500022480047224800472248004722480047D7
:1005600022480047224800472248004722480047C7
:1005700022480047224800472248004722480047B7
:1005800022480047224800472248004722480047A7
:100590002248004722480047224800472248004797
:1005A0002248004722480047224800472248004787
:1005B0002505000029050000212D0100312F010033
:1005C000A12F01006D88010081880100958801003C
:1005D000A9880100BD880100D1880100E5880100DB
:1005E000F98801000D890100218901003589010088
:1005F000498901005D890100718901008589010037
:100600009989010021050000210500002105000055
:10061000316E01006D6E0100210500002105000012
:10062000ED8F0100A194010021050000CD9401008F
:1006300021050000F99401002105000010F8012BAC
:1006400011F8013B012A28BF9A42F7D0D01A70470F
:1006500080B582B000AF78600B46FB70786812F00E
:1006600045F90837BD4680BD80B584B000AF7860DD
:100670000B46FB707B68184612F076F8F860FB6852
:10068000002B05D109482F21094A0A4B15F010FC0F
:10069000FB68002B05D0084B1A687B681A44064B90
:1006A0001A60FB6818461037BD4680BD28A80100B7
:1006B00068C9010084A80100B802FF1F80B582B09C
:1006C00000AF78607B68002B05D10C483C210C4AB8
:1006D0000C4B15F0EDFB012012F0A4FD02467B68E7
:1006E0001A607B681B68002B01D1FF2300E0002308
:1006F0005BB218460837BD4680BD00BF28A8010080
:1007000074C901008CA8010090B583B000AF786077
:100710007B68002B05D113484A21134A134B15F06F
:10072000C7FB7B681B68184612F094FD044614F062
:1007300045F903469C4201D1FF230EE07B681B680C
:10074000184600214FF0FF32002312F0B7FF034696
:10075000002B01D1FF2300E000235BB218460C37C9
:10076000BD4690BD28A8010084C901008CA80100E5
:1007700090B583B000AF78607B68002B05D1174837
:100780005B21174A174B15F093FB7B681B681846D3
:1007900012F060FD044614F011F903469C4205D0A6
:1007A0000E485E210E4A104B15F082FB7B681B68D9
:1007B000184600210022002312F064FD0346012B9D
:1007C00001D1002305E005486721054A064B15F0D5
:1007D0006FFB5BB218460C37BD4690BD28A80100E0
:1007E00094C901008CA8010094A8010080B483B0D2
:1007F00000AF7860012318460C37BD465DF8047BD6
:10080000704700BF80B582B000AF78607B68002B76
:1008100005D10D4874210D4A0D4B15F049FB7B683D
:100820001B68002B05D108487521084A094B15F0B3
:100830003FFB7B681B68184613F056F800235BB239
:1008400018460837BD4680BD28A80100A4C901008C
:100850008CA8010098A8010080B582B000AF786034
:100860007B68002B05D108487D21084A084B15F00C
:100870001FFB7B681B68184611F0D8FE00235BB293
:1008800018460837BD4680BD28A80100B4C901003C
:10089000A0A8010080B582B000AF78600B46FB7065
:1008A0007B68002B05D10D4885210D4A0D4B15F0B5
:1008B000FFFA11F005FD02467B681A607B681B6831
:1008C000002B04D07B68FA781A71002300E0FF2324
:1008D0005BB218460837BD4680BD00BF28A801009E
:1008E000C4C90100A0A8010080B584B000AF786041
:1008F00039607B68002B05D10F4896210F4A104BB9
:1009000015F0D6FAEFF30583FB60FB68002B06D0E9
:100910007B681B681846396811F0EAFD05E07B68C2
:100920001B681846396811F0ADFD00235BB218460C
:100930001037BD4680BD00BF28A80100D4C9010002
:10094000A0A8010080B586B000AF786039607B68F0
:10095000002B05D11948A621194A1A4B15F0A8FAFF
:100960000023FB60EFF305833B613B69002B18D04C
:100970007B681A6807F10C03104639681A4611F0B3
:10098000BFFE78617B69002B11D0FB68002B0ED075
:100990000D4B4FF080521A60BFF34F8FBFF36F8F34
:1009A00005E07B681B681846396811F0B5FD002327
:1009B0005BB218461837BD4680BD00BF28A80100AD
:1009C000E4C90100A0A8010004ED00E080B58AB0F0
:1009D00002AFF860B9607A603B60FB68002B05D11C
:1009E0001948BB21194A1A4B15F062FA3B68B3F15A
:1009F000FF3F03D14FF0FF33FB6101E03B68FB6138
:100A0000FB681B79002B01D1012300E00023BB61AF
:100A1000FB681A687B68F96900911046B968BA6981
:100A200011F066FC78617A69BB681A40BB6A1A608B
:100A3000BB6A1B68002B01D0002300E0FD235BB2E2
:100A400018462037BD4680BD28A80100F0C9010026
:100A5000A0A8010080B582B000AFEFF305833B6032
:100A60003B68002B03D013F0F1FB786002E013F039
:100A7000DDFB78607B684FF47A7202FB03F2044B73
:100A8000A3FB02139B0918460837BD4680BD00BF73
:100A9000D34D621080B586B000AF0346FB71FB7981
:100AA000012B2BD1EFF305837B617B69002B22D0D7
:100AB000154B1B68072B05DD1448F621144A154B0E
:100AC00015F0F6F9104B1A68EFF311814FF020037F
:100AD00083F31188BFF36F8FBFF34F8F3961FB60D2
:100AE0003B6919460C4B43F82210074B1B685A1CF4
:100AF000054B1A6004E012F0C7F901E013F0ECFABC
:100B00001837BD4680BD00BF0801FF1F28A801009F
:100B100000CA0100A8A80100E800FF1F80B584B04A
:100B200000AF0346FB71FB79012B22D1EFF3058364
:100B3000FB60FB68002B19D0104B1B685A1E0F4B33
:100B40001A600E4B1B68002B06DA0D4840F20D119F
:100B50000C4A0D4B15F0ACF9084B1A680B4B53F8C7
:100B60002230BB60BB6883F3118804E012F0BAF94D
:100B700001E013F0BFFA1037BD4680BD0801FF1F2A
:100B800028A8010014CA0100E4A80100E800FF1F22
:100B900080B483B000AF03463960FB7197F907302A
:100BA000002B0BDA0D49FB7903F00F03043B3A6885
:100BB000D2B21201D2B20B441A7609E0084997F971
:100BC00007303A68D2B21201D2B20B4483F8002344
:100BD0000C37BD465DF8047B704700BF00ED00E0B8
:100BE00000E100E080B582B000AF786039603B681A
:100BF0000F2B05D90A4864210A4A0B4B15F058F906
:100C00007A683B6813441B78DBB263F07F03DAB287
:100C100079683B680B441A700837BD4680BD00BF39
:100C200000A9010050CA010018A9010080B584B0D4
:100C300000AFF860B9607A60BB680F2B05D90E4829
:100C400082210E4A0E4B15F033F9FA68BB68134443
:100C50001B78DBB223F03F03DAB27B68DBB203F030
:100C60003F03DBB21343DAB2F968BB680B441A7076
:100C70001037BD4680BD00BF00A901003CCA01007D
:100C800018A9010080B584B000AF78600023FB6034
:100C900007E00C4A7B689A4200D105E0FB6801330B
:100CA000FB60FB68002BF4D0FB68002B05D00648E6
:100CB0004A21064A064B15F0FBF8FB681846103728
:100CC000BD4680BD0080004044A9010028CA010043
:100CD000ACA9010080B586B000AFF860B9607A6059
:100CE0003B6000237B610B4B1A6807F1140310462D
:100CF000194612F059FC7B69002B07D0064B4FF0C8
:100D000080521A60BFF34F8FBFF36F8F1837BD4605
:100D100080BD00BF0802FF1F04ED00E080B586B073
:100D200000AFF860B9607A603B6000237B610B4BD9
:100D30001A6807F114031046194612F035FC7B6956
:100D4000002B07D0064B4FF080521A60BFF34F8F35
:100D5000BFF36F8F1837BD4680BD00BF0802FF1F6D
:100D600004ED00E080B584B000AF78607B689B6ADA
:100D7000184615F023FAF8600C4AFB6813441A78F9
:100D80007B685B6A52B210461946FFF701FF7B6829
:100D90009B6A18460649074A002315F01FFD0023E9
:100DA0005BB218461037BD4680BD00BF1400FF1F60
:100DB000D401FF1F1D0D000080B588B004AF78601E
:100DC0007B689B69184615F0C9F87B689B68002B07
:100DD00013DB7B6899697B689B681A467B689B8BF1
:100DE000084611461A46FFF721FF7B689A697B681F
:100DF0009B6810461946FFF7F5FE7B681B69002BC0
:100E000013DB7B6899697B681B691A467B68DB8BFF
:100E1000084611461A46FFF709FF7B689A697B6806
:100E20001B6910461946FFF7DDFE0023BB6007F182
:100E30000803184617F0FEF87B685A6807F10803A4
:100E40001046194617F0B0F83E480021182218F055
:100E50002AFD3D480021182218F025FD3B480021BD
:100E6000182218F020FD7B685A687B689B6835481B
:100E700011461A4617F056FB7B685A687B68DB6898
:100E8000314811461A4617F04DFB7B685A687B685B
:100E90001B692E4811461A4617F044FB7B689B6A73
:100EA000284A0092284A0192284A02921846284964
:100EB000284A002316F02CF97B685B681846FFF778
:100EC000E1FEF8607B689B68002B0EDB7B689B680B
:100ED000214AF96809010B4413441A787B685B695D
:100EE00052B210461946FFF753FE7B68DB68002BB1
:100EF0000EDB7B68DB68184AF96809010B44134470
:100F00001A787B685B6952B210461946FFF740FEBB
:100F10007B681B69002B0EDB7B681B690E4AF96836
:100F200009010B4413441A787B685B6952B210467E
:100F30001946FFF72DFE00235BB218461037BD4659
:100F400080BD00BF8C01FF1FA401FF1FBC01FF1F5C
:100F50000C01FF1FD50C00000400FF1F80B584B0FA
:100F600000AFF860B9607A603B60FB68002B05D188
:100F70001D48B0211D4A1E4B14F09AFF3B68002B00
:100F800005D11948B121194A1A4B14F091FF0120DB
:100F900012F048F90246184B1A60174B1B68002BD9
:100FA00005D11148B421114A144B14F081FF0120DE
:100FB0000021032212F0C2F80246114B1A60104BB6
:100FC0001B68002B05D10848B621084A0D4B14F0C8
:100FD0006FFFF8680C49BA6815F01CF900235BB282
:100FE00018461037BD4680BD44A9010068CA0100FB
:100FF000D0A90100E0A901000402FF1FF4A901002B
:101000000802FF1F04AA01000C02FF1F80B584B074
:1010100000AF78607B68002B05D11748C321174AC1
:10102000174B14F045FF174B1B68184616497A6892
:1010300016F0CEF8F860FB68002B05D00E48C821EA
:101040000E4A124B14F034FF114B1B681846002156
:101050004FF0FF32002312F031FB0346012B05D085
:101060000548CE21054A094B14F022FF00235BB24C
:1010700018461037BD4680BD44A9010080CA010052
:1010800014AA01003002FF1F0C01FF1F28AA010053
:101090000802FF1F80B584B000AF78607B68002B2A
:1010A00005D11748D921174A174B14F001FF174BE8
:1010B0001B68184616497A6815F072FCF860FB68E0
:1010C000002B05D00E48DE210E4A124B14F0F0FE24
:1010D000114B1B68184600214FF0FF32002312F01D
:1010E000EDFA0346012B05D00548E321054A094BDB
:1010F00014F0DEFE00235BB218461037BD4680BDFB
:1011000044A901009CCA010014AA01003002FF1F7B
:10111000D401FF1F28AA01000802FF1F80B584B078
:1011200000AF78600023FB737B689B68BB6042E084
:10113000BA68254B1B689A420FD2BA687B689A60DE
:101140007868FFF7A7FF0346FB7397F90F30002B72
:1011500000D033E00023BB602DE01C4B1A68BB6855
:101160009A42B8BF13461A467B689A607868FFF7C0
:101170004DFF0346FB7397F90F30002B00D01DE0A5
:10118000BA687B689B68D31ABB607B681B68002BBE
:1011900006D07B681A687B689B681A447B681A6073
:1011A0007B685B68002B06D07B685A687B689B680D
:1011B0001A447B685A60BB68002BB9D1FB7B5BB2D9
:1011C00018461037BD4680BD3802FF1F0000FF1FC4
:1011D000B0B582B000AF78607B68002B03D07B682D
:1011E0009B6A002B06D134484FF48E71334A344B3E
:1011F00014F05EFE7B68002B03D07B689B6A002B9B
:1012000001D1FF2353E07B681B6A002B08D07B6869
:101210001B68002B04D12B4B4FF0FF321A601AE0F1
:101220007B681B6A002B07D17B681B68002B03D0EF
:10123000244B00221A600EE07B681B6A002B08D04A
:101240007B681B68002B04D07B689A6B1D4B1A606F
:1012500001E0FF232BE07B689A6A1B4B1A607B68D6
:101260001A6B1A4B1A601A4A7B68144603F13C0544
:101270000FCD0FC40FCD0FC42B6823607B68986A15
:101280007B68D96A7B681A6B7B683C33FFF766FE24
:101290007B681B6A002B02D07868FFF763FD7B68D0
:1012A0001B68002B02D07868FFF786FD00235BB235
:1012B00018460837BD46B0BD44A90100B8CA0100B0
:1012C0002CAA01003802FF1F3002FF1F3402FF1F4B
:1012D0000C02FF1F80B582B000AF78607B68002BE6
:1012E00006D111484FF4AF71104A114B14F0E0FDD4
:1012F0007B68002B01D1FF2311E078680021602278
:1013000018F0D1FA7B684FF0FF329A607B684FF09B
:10131000FF32DA607B684FF0FF321A6100235BB264
:1013200018460837BD4680BD44A90100CCCA01005B
:1013300060AA010080B584B000AFF860B9601346C0
:10134000FB71FB68002B06D128484FF4B771284A7F
:10135000284B14F0ADFDFB68002B01D1FF2340E0CA
:10136000F8680021242218F09EFAF86815F012F8A7
:10137000FB6800221A70FB68BA685A60FB68082292
:101380009A60FB6801221A73FB6801225A73FB689A
:1013900000229A73184ABB68B2FBF3F2FB681A6129
:1013A000154ABB68B2FBF3F2FB685A61124ABB688C
:1013B000B2FBF3F2FB689A61FB68FA791A77FB6873
:1013C00001225A77FB6800229A77FB680022DA77BD
:1013D000FB68002283F82020FB68002283F821208C
:1013E00000235BB218461037BD4680BD44A90100FA
:1013F000ECCA010074AA010000CA9A3B80B58AB009
:1014000000AFF8600B467A60FB7207F1140300220C
:101410001A60043300221A60043300221A60043375
:1014200000221A60043307F10C037B617B68BB6107
:10143000FB7AFB61134B1B683B62134B1B6818461E
:1014400000214FF0FF32002312F038F90346012B40
:1014500001D0FF2311E007F114031846FFF75EFEE9
:10146000034687F82730084B1B68184600210022E6
:10147000002311F007FF97F827305BB21846283792
:10148000BD4680BD3402FF1F0402FF1F80B58AB035
:1014900000AFF8607B600B467B8113467B7207F1DF
:1014A000140300221A60043300221A60043300225D
:1014B0001A60043300221A6004337B7A002B04D0B4
:1014C00000237B61FB68BB6103E0FB687B61002359
:1014D000BB617B89FB61144B1B683B62134B1B6830
:1014E000184600214FF0FF32002312F0E7F80346C0
:1014F000012B01D0FF2311E007F114031846FFF779
:101500000DFE034687F82730084B1B68184600215C
:101510000022002311F0B6FE97F827305BB2184680
:101520002837BD4680BD00BF3402FF1F0402FF1FE5
:1015300080B483B000AF0346FB71084B97F90720D6
:101540005209F97901F01F01012000FA01F143F875
:1015500022100C37BD465DF8047B704700E100E0C7
:1015600080B483B000AF03463960FB7197F9073050
:10157000002B0BDA0D49FB7903F00F03043B3A68AB
:10158000D2B21201D2B20B441A7609E0084997F997
:1015900007303A68D2B21201D2B20B4483F800236A
:1015A0000C37BD465DF8047B704700BF00ED00E0DE
:1015B00000E100E080B485B000AFF860B960134688
:1015C000FB71FB68BA6853F8223023F47022FB7970
:1015D0001B0403F4702342EA0301FB68BA6843F872
:1015E00022101437BD465DF8047B704780B483B089
:1015F00000AF786039607B683A685A600C37BD4646
:101600005DF8047B704700BF80B483B000AF7860A2
:1016100039607B683A689A600C37BD465DF8047B98
:10162000704700BF80B582B000AF3B1D1846002157
:10163000022218F038F918F059F801233B713B1DCC
:101640000F4813211A4617F0F7F900233B710D4894
:1016500006210A22FFF7AEFF3B1D0B4806211A4662
:1016600017F0EAF93D20FFF763FF3D200321FFF764
:1016700077FF00235BB218460837BD4680BD00BF28
:1016800040F00F4000B0044080F00F4080B59CB0A7
:1016900000AF78607B68DB6AFB66FB6E0122C3F8F3
:1016A000F021FB6EC12283F8F42107F108026023C8
:1016B000104600211A4618F0F6F807F108031846FC
:1016C000FFF708FE0123BB60204B3B624FF4887399
:1016D000BB841F4BFB6000233B6101237B61022322
:1016E000BB610323FB610123BB620323FB62194B34
:1016F0003B63022014F06CF803467B63164BFB63DC
:1017000008233B640023BB6307F108033C331846FE
:1017100011490122FFF70EFE07F108031846FFF7F3
:1017200057FD034687F86B3097F96B30002B05D0D7
:101730000A4877210A4A0B4B14F0BAFB97F86B3032
:101740005BB218467037BD4680BD00BF0010024036
:101750000080004000D00240002D31018CAA010021
:1017600008CB0100F8AA010080B483B000AF786014
:1017700000235BB218460C37BD465DF8047B70470A
:1017800080B582B000AF78607B68002B05D0084838
:101790004FF40021FFF72AFF04E005484FF4002131
:1017A000FFF732FF00235BB218460837BD4680BD05
:1017B00040F00F4080B584B000AF7860054BDB6827
:1017C000FB60FB68002B02D0F86808F087FD10373B
:1017D000BD4680BD2857FF1F80B582B000AF0948C5
:1017E00017F062F978600748796817F075F97B6837
:1017F00003F04003002B02D00020FFF7DBFF083787
:10180000BD4680BD80F00F4080B586B000AFF86067
:10181000B9607A603B60FB68DB687B617B69002BA9
:1018200002D14FF0FF3311E07869012100220DF061
:101830004FFC0346002B02D04FF0FF3306E07869DF
:10184000B9687A683B6807F0F1FA0346184618371A
:10185000BD4680BD80B586B000AFF860B9607A60E3
:101860007B80FB68DB687B617B69002B02D14FF0DA
:10187000FF3311E07869012100220DF029FC0346B5
:10188000002B02D04FF0FF3306E07B887869B968FF
:101890007A6807F077FB034618461837BD4680BDC7
:1018A00080B58AB004AFF860B9607A603B60FB68CD
:1018B000DB687B617B69002B01D1FF231DE0786928
:1018C000012100220DF004FC0346002B01D0FF2370
:1018D00013E03B6A00937B6A0193BB6A02937869C9
:1018E000B9687A683B6807F0FFFB38613B69002BF9
:1018F00001D1002300E0FF23DBB25BB218461837AA
:10190000BD4680BD80B584B000AF786039603B686B
:10191000FB60094B1B68002B08D0074B1B68FA685B
:10192000111DFA6852690846114698470023184667
:101930001037BD4680BD00BF3C02FF1F80B584B09C
:1019400000AF786039603B68FB60094B1B68002B77
:1019500008D0074B1B68FA685068FA689168FA6803
:10196000D2689847002318461037BD4680BD00BF97
:101970004002FF1F80B584B000AF7860396000235B
:10198000FB607B6804331846FEF7BEFE7B689B6CE9
:10199000FB607B6804331846FEF7EAFEFB68002B09
:1019A00005D07B68DA6CFB681046396898471037B9
:1019B000BD4680BD80B586B000AFF860B9607A6082
:1019C000FB68DB687B617B69002B02D14FF0FF3342
:1019D00010E07869012100220DF07AFB0346002B0C
:1019E00002D04FF0FF3305E07869B9687A6807F0F4
:1019F00099FC034618461837BD4680BD80B586B0B1
:101A000000AFF860B9607A603B6000237B61FB68DF
:101A100004331846FEF778FEFB681B6D7B61FB689C
:101A200004331846FEF7A4FE7B69002B04D07B69C3
:101A3000B86879683A6898471837BD4680BD00BFD6
:101A400080B584B000AF78607B68FB60FB689B6901
:101A5000BB60F868582100F093FCF860BB681B6815
:101A60001846012107F060FE1037BD4680BD00BF5B
:101A700080B485B000AF0023BB600023FB600DE0A5
:101A80000B4BFA6853F822305B697B607B681B8BD9
:101A9000BA681344BB60FB680133FB60FB68072B2B
:101AA000EED9BB6818461437BD465DF8047B704715
:101AB000F856FF1F80B485B000AFF860B9607A6057
:101AC0003B60002318461437BD465DF8047B704721
:101AD00080B485B000AF78600023BB600023FB605A
:101AE0000AE07A68FB689B0013445B68BA6813439A
:101AF000BB60FB680133FB60FB68022BF1D9BB685C
:101B000018461437BD465DF8047B704780B588B031
:101B100000AF786039603B68FB610023BB61002344
:101B20007B6100233B61FB69002B4CD0F86900F01E
:101B300073FEF860FB681B687B617B6918460121B6
:101B400006F052FAB861BB69002B02DBBB69082BB7
:101B500007DD204B1D221A60386800F0A5FCFF232A
:101B600032E01D4BBA6953F822301846FFF7B0FF38
:101B70000346002B07D0174B1F221A60386800F06D
:101B800093FCFF2320E0786807F000FE124BBA694F
:101B900053F822305B693B61FFF76AFF0346012B74
:101BA00003D9386800F080FC0DE03B69103318461B
:101BB000F96900F09BFD084BBA6953F822301846CA
:101BC000002107F0B1FD00235BB218462037BD4667
:101BD00080BD00BF1C57FF1FF856FF1F80B584B0A3
:101BE00000AF786039607B685B6BFB607B68DB6AA9
:101BF00093F81232002B03D0FB683868984703E053
:101C000078683968FFF782FF1037BD4680BD00BF96
:101C100080B594B000AF0346B9607A60FB73BB68CF
:101C2000163B4A2B00F2E08101A252F823F000BFDC
:101C3000B71D0000E91F0000931E00003F1E0000BA
:101C4000E91F0000E91F0000E91F0000B31F0000AA
:101C50005D1D0000831D0000E91F0000E91F00005A
:101C6000651E00000D1E0000E91F0000E91F0000B6
:101C7000E91F0000E91F0000E91F0000E91F000044
:101C8000E91F0000E91F0000E91F0000E91F000034
:101C9000E91F0000E91F0000E91F0000E91F000024
:101CA000E91F0000E91F0000E91F0000E91F000014
:101CB000E91F0000E91F0000E91F0000E91F000004
:101CC000E91F0000E91F0000E91F0000E91F0000F4
:101CD000E91F0000E91F0000E91F0000E91F0000E4
:101CE000E91F0000E91F0000E91F0000E91F0000D4
:101CF000E91F0000E91F0000E91F0000E91F0000C4
:101D0000E91F0000E91F0000E91F0000E91F0000B3
:101D1000E91F0000E91F0000E91F0000E91F0000A3
:101D2000E91F0000E91F0000E91F0000E91F000093
:101D3000E91F0000E91F0000E91F0000E91F000083
:101D4000E91F0000E91F0000E91F0000E91F000073
:101D5000E91F00000F1F0000691F0000FB7B1846F1
:101D600000F080FF034618460421002203F03AFAEF
:101D7000F864FB6C002B01D1002300E0FF23DBB2F1
:101D800046E1FB7B184600F06DFF024607F1400379
:101D9000104613211A4603F025FA0346002B01D002
:101DA000FF2335E17A6C7B685A603B6C1A467B688E
:101DB0001A6000232CE17B685B68BB64BB6C002B62
:101DC00006D100233B87BB6C7B630023FB6308E0E9
:101DD00001233B87BB6C7B63B86C17F001FE0346A5
:101DE000FB63FB7B184600F03DFF024607F134031E
:101DF000104605211A4603F0F5F9F864FB6C002B38
:101E000001D1002300E0FF23DBB201E17B685B68C6
:101E1000FB62FB7B184600F025FF024607F1280312
:101E2000104614211A4603F0DDF90346002B01D0B9
:101E3000FF23EDE03B6B9AB27B681A81E7E0FB7B06
:101E4000184600F00FFF0346184601217A6803F098
:101E5000C9F9F864FB6C002B01D1002300E0FF23DB
:101E6000DBB2D5E0FB7B184600F0FCFE024607F132
:101E70001C03104619211A4603F0B4F90346002B3F
:101E800001D0FF23C4E0FB691A467B681A60002377
:101E9000BEE07B681B68082B24D801A252F823F00F
:101EA000C51E0000E51E0000E51E0000CD1E00005E
:101EB000D51E0000E51E0000E51E0000E51E000026
:101EC000DD1E00007B6800221A600DE07B680222A4
:101ED0001A6009E07B6803221A6005E07B68012232
:101EE0001A6001E0FF2393E0FB7B184600F0BAFE86
:101EF000034618460B217A6803F074F9F864FB6C0A
:101F0000002B01D1002300E0FF23DBB280E07B68DF
:101F10001B68002B03D17B6802221A6011E07B68EA
:101F20001B68022B03D17B6801221A6009E07B68E1
:101F30001B68012B03D17B6803221A6001E0FF2399
:101F400066E0FB7B184600F08DFE03461846032131
:101F50007A6803F047F9F864FB6C002B01D1002389
:101F600000E0FF23DBB253E0FB7B184600F07AFE73
:101F70000346184610217A6803F034F90346002B13
:101F800001D0FF2344E07B681B68022B04D0032BA5
:101F90000AD0012B04D00BE07B6800221A6007E016
:101FA0007B6802221A6003E07B6801221A6000BF8E
:101FB0002DE07B685B687B617B681B89BB61FB7B79
:101FC000184600F04FFE024607F1100310460C21A0
:101FD0001A4603F007F9F864FB6C002B01D10023CB
:101FE00000E0FF23DBB213E0FB7B184600F03AFE73
:101FF0000346184681217A6803F0F4F8F864FB6C14
:10200000002B01D1002300E0FF23DBB200E000231E
:102010005BB218465037BD4680BD00BF80B483B068
:1020200000AF78600C37BD465DF8047B704700BF99
:1020300090B585B000AF78600B467B807B68043339
:102040001846FEF761FB7B68DB6A03F517731846D9
:1020500000F072FBF8607B68DB6AB3F86432002B37
:1020600003D1786800210AF0F7FD7B680433184635
:10207000FEF77EFBFB68002B11D0F8680D497A68EB
:1020800000F0FEF87C88F86800F03CFC03469C42B7
:102090000BDD09486B21094A094B13F009FF06487B
:1020A0007021064A074B13F003FFFB6818461437EC
:1020B000BD4690BD1D20000008AB010020CB0100F3
:1020C0006CAB010090AB010080B584B000AF7860CC
:1020D00007E078680A21FFF7ABFFF860F86800F0C6
:1020E000AFF87B68DB6A1B69012BF2D07B68DB6A87
:1020F000D3F80C32002B0CD07B68DB6AD3F80C329F
:1021000018460021FEF7A4FA7B68DB6A0022C3F8B8
:102110000C221037BD4680BD80B588B000AF786016
:102120000023BB617B68DB6A7B614FF4AF63BB61FB
:10213000BB69B3F5167F38BF4FF41673BB61BB693B
:10214000002B15D0BB6918460021FEF78DFA024618
:102150007B69C3F80C227B69D3F80C32002B01D1C8
:1021600002235FE0BB699AB27B69A3F8102207E003
:102170007B690022C3F80C227B690022A3F810229D
:102180007B68DB6A7A69D2F80C22C3F868227B6824
:10219000DB6AD3F86832002B05D12548B121254AE6
:1021A000254B13F085FE7B68DB6A002283F87822DA
:1021B0007B689B6A3B617B68DB6A03F51773184693
:1021C00000F0EEFA3B691B689B89FB810023FB83CF
:1021D0001BE04FF4D06000F01BF9B860BB68002B27
:1021E00005D11348C321134A144B13F061FEB8689C
:1021F00000F0FEF87B68DB6A03F517731846B968D0
:1022000000F074FAFB8B0133FB83FA8BFB899A4253
:10221000DFD37B6901221A617B68DB6A0022C3F885
:10222000702200235BB218462037BD4680BD00BF38
:1022300008AB010034CB010094AB0100ECAB010012
:1022400080B584B000AF78607B68FB60FB68DB69B9
:10225000002B05D0FB68DB6918460221FEF7F8F970
:10226000FB689B69002B04D0FB689B691846FFF74D
:10227000E7FBF8680321FEF7EBF91037BD4680BD98
:1022800080B487B000AFF860B9607A60FB687B61AA
:102290007B697A681A607B69DB6940331A467B691F
:1022A0001A627B691A6A7B695A627B69DA697B699F
:1022B0009A607B699B6A1A467B69DB69D21A7B69E3
:1022C0005A607B69012283F82D201C37BD465DF8DA
:1022D000047B704780B584B000AF7860482003214C
:1022E000FEF7C2F9F860FB68002B00D143E0F86804
:1022F0000021482217F0D7FA7B6840331A46FB6862
:102300005A60FB685B6818460221FEF7ADF9024689
:10231000FB689A60FB689B68002B06D1F868032174
:10232000FEF796F90023FB6025E0FB689A68FB68DE
:10233000DA61FB689B681A46FB685B6813441A46BF
:10234000FB689A62FB68DB6940331A46FB681A62D5
:10235000FB681A6AFB685A62FB683433184600212E
:10236000142217F0A0FAFB68002283F82C20FB68E7
:10237000002283F82D20FB6818461037BD4680BD2B
:1023800080B584B000AF786039607B68FB603B68E3
:1023900040331A46FB685A60FB689A68FB68DA614A
:1023A000FB689B681A46FB685B6813441A46FB6827
:1023B0009A62FB68DB6940331A46FB681A62FB6865
:1023C0001A6AFB685A62FB683433184600211422EB
:1023D00017F069FAFB68002283F82C20FB680022C2
:1023E00083F82D20FB6818461037BD4680BD00BF1E
:1023F00080B485B000AF78607B68FB60FB68012229
:1024000083F82D201437BD465DF8047B704700BF6C
:1024100080B584B000AF78600023FB6048200321C2
:10242000FEF722F9F860FB68002B00D137E0F8686E
:102430000021482217F037FA7A68FB685A60FB6877
:102440005B6818460221FEF70FF90246FB689A60A6
:10245000FB689B68002B06D1F8680321FEF7F8F8AB
:102460000023FB601BE0FB689A68FB681A62FB684C
:102470001A6AFB685A62FB685A6AFB68DA61FB6891
:102480009B681A46FB685B6813441A46FB689A62AD
:10249000FB68343318460021142217F004FAFB6855
:1024A00018461037BD4680BD80B584B000AF786057
:1024B0007B68FB60FB6893F82D30002B03D07868B5
:1024C00000F024F81EE0FB6893F82C30002B03D0BA
:1024D000786800F03DF815E0FB689B69002B03D09D
:1024E000F868FFF7ADFA0DE0FB68DB69002B05D05B
:1024F000FB68DB6918460221FEF7AAF8F868032199
:10250000FEF7A6F81037BD4680BD00BF80B584B089
:1025100000AF78607B68FB60FB681B68BB60BB68D2
:1025200004331846FEF7F0F8BB68DB6A03F517734F
:102530001846F96800F0DAF8B86801210AF08CFB57
:10254000BB6804331846FEF713F91037BD4680BD4B
:1025500080B483B000AF78600C37BD465DF8047B73
:10256000704700BF80B487B000AF78607B68FB60C5
:10257000FB685B6A1A46FB681B6AD31A7B610023FF
:102580007B82FB681B7D002B2BD0FB689B69002B9B
:1025900014D000237B820BE0FB689A697B8ADB0006
:1025A00013445B687A6913447B617B8A01337B82C5
:1025B000FB681B7D7A8A9A42EED312E001237B826C
:1025C0000AE07B8AFA68DB0013445B687A6913448B
:1025D0007B617B8A01337B82FB681B7D7A8A9A420E
:1025E000EFD97B6918461C37BD465DF8047B704700
:1025F00080B586B000AFF8600B467A60FB720023AE
:102600007B61FB683B61FB7A002B0DD1F86800F021
:1026100003F978613B695B6A1A463B691B6AD31A06
:102620001A467B681A6029E03B691B7DFA7A9A4258
:1026300024D83B699B69002B12D03B699A69FB7ACD
:10264000013BDB0013449B687B613B699A69FB7A21
:10265000013BDB0013445B681A467B681A600DE09F
:10266000FB7A3A69DB0013449B687B61FB7A3A6929
:10267000DB0013445B681A467B681A607B69184666
:102680001837BD4680BD00BF80B586B000AFF8608A
:10269000B9607A60FB687B617B691B7D002B14D17C
:1026A0007B691B7D0133DAB27B691A757B691B7DFF
:1026B0007A69DB001344BA689A607B691B7D7A688B
:1026C0007969DB000B445A6006E005484FF4147149
:1026D000044A054B13F0ECFB1837BD4680BD00BF24
:1026E00000AC010050CB010064AC010080B582B0A9
:1026F00000AF786039600120FEF7CCF97B681B6879
:10270000002B03D17B683A681A6003E07B685B6842
:102710003A681A637B683A685A603B6800221A6319
:102720007B681B8901339AB27B681A810120FEF70E
:10273000F5F90837BD4680BD80B584B000AF78603C
:102740007B681B68002B01D1002324E00120FEF7E9
:10275000A1F97B681B68FB607B685A687B681B6813
:102760009A4207D17B6800221A607B681A687B68EE
:102770005A6003E0FB681A6B7B681A607B681B89F0
:10278000013B9AB27B681A81FB6800221A63012020
:10279000FEF7C4F9FB6818461037BD4680BD00BF80
:1027A00080B483B000AF78607B6800225A607B6899
:1027B0005A687B681A607B6800221A810C37BD4614
:1027C0005DF8047B704700BF80B586B000AFF8604D
:1027D000B960FA80BB80FB687B6178690021482280
:1027E00017F061F8BB68002B13D07B69BA68DA6117
:1027F000FB88BA681A447B691A62FA88BB8813445A
:10280000BA681A447B695A623B8CBA681A447B697D
:102810009A621837BD4680BD80B483B000AF78603F
:102820007B681B6A18460C37BD465DF8047B704711
:1028300080B584B000AF786039607B68FB60FB686E
:102840001B6A1A46FB68DB69D21A3B689A4206D2B9
:102850000A4840F2B7210A4A0A4B13F029FBFB68E9
:102860001B6A1A463B68D31A1A46FB681A62002391
:102870005BB218461037BD4680BD00BF00AC0100FA
:102880006CCB010064AC010080B584B000AF78600F
:1028900039607B68FB60FB689B6A1A46FB685B6A71
:1028A000D21A3B689A4206D20A4840F2D7210A4A15
:1028B0000A4B13F0FDFAFB685B6A1A463B68134447
:1028C0001A46FB685A6200235BB218461037BD46B1
:1028D00080BD00BF00AC01007CCB010064AC0100F6
:1028E00080B485B000AF78607B68FB60FB681B6AD2
:1028F0001A46FB68DB69D31A18461437BD465DF8E3
:10290000047B704780B485B000AF78607B68FB6063
:10291000FB689B6A1A46FB685B6AD31A1846143731
:10292000BD465DF8047B704780B584B000AF786029
:1029300039607B68FB60FB685B6A1A46FB681B6A50
:10294000D21A3B689A4206D20A4840F20A310A4A31
:102950000A4B13F0ADFAFB681B6A1A463B68134436
:102960001A46FB681A6200235BB218461037BD4650
:1029700080BD00BF00AC01008CCB010064AC010045
:1029800080B584B000AF786039607B68FB60FB681D
:102990005B6A1A46FB681B6AD21A3B689A4206D2E7
:1029A0000A484FF447710A4A0A4B13F081FAFB6850
:1029B0005B6A1A463B68D31A1A46FB685A620023C0
:1029C0005BB218461037BD4680BD00BF00AC0100A9
:1029D0009CCB010064AC010080B485B000AFF8600E
:1029E000B9607A603B60FEE780B485B000AFF86004
:1029F000B9607A603B60FEE780B483B000AF786076
:102A00003960002318460C37BD465DF8047B7047DB
:102A100080B483B000AF7860002318460C37BD4601
:102A20005DF8047B704700BF80B584B000AF78606C
:102A300039600023FB603B68002B08D17B68DB68B2
:102A4000002B0CD0786800F0DFF8F86007E07B68B6
:102A5000DB68002B03D1786800F006F8F860FB68AB
:102A600018461037BD4680BD80B586B000AF78608F
:102A700000237B615E4B1B68002B3AD05C4B1B68CC
:102A80009B6A3B617B681B681B685B79FB73FB7B04
:102A9000002B05D057489E21574A584B13F008FA8F
:102AA0007B681A1D3B69043310461946062216F04E
:102AB000D6FE7B681B79DAB2FB7B012101FA03F3B6
:102AC000DBB25340DBB243F00203DBB2DAB27B6825
:102AD0001A71474B1A687B68DA60454B1B68FA7BB2
:102AE0000A32796843F82210454B7A685A607B694C
:102AF0007AE058200121FDF7B7FD02463C4B1A60F1
:102B00003B4B1B68002B02D1FF237B614DE0384B10
:102B10001B6818460021582216F0C5FE4FF42B7092
:102B20000121FDF7A1FDB860314B1B68BA68DA627C
:102B3000BB68002B02D1FF237B6136E02C4B1A6867
:102B40007B68DA602A4B1B687A689A62284B1B689C
:102B50007A68126812695A62254B1B6818460BF096
:102B60000BF80346002B02D0FF237B611DE0204BB6
:102B70001B6818460AF034FB0346002B02D0FF23E3
:102B80007B6112E01A4B1B6818460BF015F80346E0
:102B9000002B02D0FF237B6107E01A4B02221A7040
:102BA000134B1B6818460BF089F87B69002B11D07A
:102BB0000F4B1B68002B10D00D4B1B68DB6A1846AF
:102BC0000121FDF745FD0A4B1B6818460121FDF761
:102BD0003FFD02E00A4B7A681A60054B1B681846F5
:102BE00005210AF0B5FF7B6918461837BD4680BD40
:102BF0009002FF1F68AC0100CCCB0100D0AC0100FB
:102C0000DC54FF1F8C02FF1F80B584B000AF7860DA
:102C10007B68DB68FB60FB68002B1CD0F8680BF05E
:102C2000BDF8F8680AF010FBF8680BF0C3F8FB6811
:102C3000DB6A002B05D0FB68DB6A18460121FDF733
:102C400007FDF8680121FDF703FD054B00221A601E
:102C50007B680022DA60002318461037BD4680BD2D
:102C60009002FF1F80B483B000AF0346FB71FA7976
:102C7000044B53F8223018460C37BD465DF8047BF0
:102C8000704700BFDC54FF1F80B5C2B000AF3B1DD2
:102C900018603C23FB813B1D1B68DB6AC7F80031D1
:102CA000391D07F1100207F10E03086811461A4694
:102CB00009F058FA0346002B0DD10023A7F806317E
:102CC00004E0B7F806310433A7F80631FB89B7F8FA
:102CD00006219A42F5D3D7F800310022C3F8D0205C
:102CE00000235BB2184607F58477BD4680BD00BF60
:102CF000F0B5BFB002AF78603960002387F8E230EA
:102D00000023C7F8EC303B685B68C7F8DC307B68B1
:102D1000DB68C7F8D830D7F8D830002B02D1FF23B2
:102D200002F04FBAD7F8D830DB6AC7F8D430D7F8FA
:102D3000D430D3F88C30C7F8D030D7F8D43093F8EB
:102D4000F230C7F8CC303B681B886D2B02F225822D
:102D500001A252F823F000BF1130000095300000AE
:102D60001131000049310000C7310000313200004C
:102D70007D340000A1340000113700005D370000F1
:102D8000B1370000493800006F3800003D390000BD
:102D9000553A00006F3C0000112F00009B510000CD
:102DA000094000008B400000F34000003F4100005C
:102DB0009B5100009B5100009B5100009B51000063
:102DC0009B5100009B5100009B5100009B51000053
:102DD0009B5100009B5100009B5100001D4C0000C6
:102DE0009B5100009B5100009B5100006541000079
:102DF000A74100002D3A00009B510000EB4100006C
:102E000039420000BF420000D3420000F7420000F8
:102E1000274300006743000035430000BD51000018
:102E20008745000055450000554600008F460000CC
:102E3000B346000073480000D74600000747000073
:102E40002F470000574700007F470000AF470000B2
:102E5000D74700000B4800003B4800009B51000092
:102E6000E34900005F440000CB4400003F4A0000FB
:102E70006D4A00007D4A00008D4A0000AF4300000B
:102E80001D440000E34A00009D4A00007D4B000005
:102E900001420000594B00009B510000B34B000061
:102EA000114B0000D74B00009B5100009B510000CC
:102EB000373000007139000091310000454C0000AE
:102EC0006B4C0000914C0000F3340000833600008E
:102ED0008B4300009B5100009B5100004B4D0000B4
:102EE000854F00001150000053500000B72F000024
:102EF000F535000037370000354B000073500000F7
:102F00006B350000A9500000C75000002B51000095
:102F1000D64B07F144041D4628686968AA68EB6827
:102F20000FC428692060D7F8DC301B6803F0020367
:102F3000002B02D04FF6FF7300E00023A7F84430C7
:102F4000D7F8DC301B6803F00203002B02D04FF6E9
:102F5000FF7300E00023A7F84630D7F8DC301B6889
:102F600003F00103002B02D04FF6FF7300E00023B3
:102F7000A7F8483007F14403D7F8D00019460822D3
:102F8000142304F057FC0346002B04D0FF23C7F89A
:102F9000EC3002F014B9D7F8D43003F526731D468F
:102FA00007F144040FCC28606960AA60EB602068D8
:102FB000286102F004B9D7F8DC3007F144041D465B
:102FC00028686968AA68EB680FC42869206007F15F
:102FD0004403D7F8D00019460822142304F02AFC31
:102FE0000346002B04D0FF23C7F8EC3002F0E7B80B
:102FF000D7F8D43003F526731D4607F144040FCCEF
:1030000028606960AA60EB602068286102F0D7B888
:103010003B685B68D7F8D00019461B22012304F0F7
:1030200009FC0346002B04D0FF23C7F8EC3002F064
:10303000C6B802F0C4B83B685B681B88A7F8CA3002
:10304000D7F8D43093F8F230B7F8CA209A4201D1B9
:1030500002F0B5B8D7F8D430D3F83432002B02D010
:10306000FF23C7F8EC30B7F8CA30002B04D0FF2399
:10307000C7F8EC3002F0A3B8D7F8D030B7F8CA20C0
:103080001A85B7F8CA30DAB2D7F8D43083F8F2200C
:1030900002F095B807F14403184600210C2216F0FF
:1030A00002FCD7F8DC301B889BB2A7F84430D7F875
:1030B000DC305B889BB2A7F84630D7F8DC309B88C1
:1030C0009BB2A7F84830D7F8DC30DB889BB2A7F872
:1030D0004A30D7F8DC301B899BB2A7F84C30D7F8C0
:1030E000DC305B899BB2A7F84E3007F14403D7F878
:1030F000D000194614220C2304F09CFB0346002B3D
:1031000004D0FF23C7F8EC3002F059B802F057B8EA
:10311000D7F8DC301B689BB2A7F844300023A7F82F
:10312000463007F14403D7F8D00019460B22042398
:1031300004F080FB0346002B04D0FF23C7F8EC30DB
:1031400002F03DB802F03BB8D7F8D43093F8F23033
:10315000D7F8DC201268D2B2D7F8D410B82000FB20
:1031600003F30B4403F58C739A72D7F8D43093F8B9
:10317000F230D7F8DC205268D2B2D7F8D410B82099
:1031800000FB03F30B4403F590731A7102F017B8B8
:103190003B685B6800221A80D7F8D43093F8F2308D
:1031A000002B0ED1D7F8D430D3F8A031002B08D0A3
:1031B0003B685B68D7F8D420B2F89C211A8001F0F4
:1031C000FEBF01F0FCBFD7F8DC002949FDF736FA55
:1031D0000346002B0ED1D7F8D43093F8F230D7F84D
:1031E000D420B82101FB03F3134403F58C730122AF
:1031F0001A721BE0D7F8DC001E49FDF71FFA0346E0
:10320000002B0ED1D7F8D43093F8F230D7F8D42071
:10321000B82101FB03F3134403F58C7302221A72E5
:1032200004E01723C7F8EC3001F0C9BF01F0C7BFB5
:1032300007F1440318460021072216F034FBD7F8A3
:10324000DC000D49FDF7FAF90346002B16D1D7F83B
:10325000D43093F8F230D7F8D420B82101FB03F32F
:10326000134403F5D07304221A72C9E064D001003C
:10327000DCAC0100E4AC0100ECAC0100D7F8DC00F0
:10328000D849FDF7DBF90346002B0ED1D7F8D4302F
:1032900093F8F230D7F8D420B82101FB03F313449C
:1032A00003F5D07302221A72AAE0D7F8DC00CE49E7
:1032B000FDF7C4F90346002B0ED1D7F8D43093F8AC
:1032C000F230D7F8D420B82101FB03F3134403F5FF
:1032D000D07301221A7293E0D7F8DC00C349FDF7DE
:1032E000ADF90346002B3DD1D7F8D43093F8F23036
:1032F0001A46D7F8D43093F8F230D7F8D410B82063
:1033000000FB03F30B4403F5D0731B7A012B01D1AF
:10331000012300E00223D7F8D410B82000FB02F20A
:103320000A4402F5D0721372D7F8D43093F8F23011
:10333000D7F8D420B82101FB03F3134403F5D0736D
:103340001B7A012B14BF00230123DBB287F8443022
:10335000012387F84530012387F84730022387F897
:103360004A304DE0D7F8DC00A149FDF767F9034684
:10337000002B45D1D7F8D43093F8F2301A46D7F85D
:10338000D43093F8F230D7F8D410B82000FB03F310
:103390000B4403F5D0731B7A012B01D1012300E00C
:1033A0000223D7F8D410B82000FB02F20A4402F539
:1033B000D0721372D7F8D43093F8F230D7F8D42003
:1033C000B82101FB03F3134403F5D0731B7A012BDF
:1033D00014BF00230123DBB287F84430012387F8B0
:1033E0004530012387F84730012387F84830002310
:1033F00087F84930022387F84A30012387F846309E
:1034000007F17C0318460021062216F04CFA01232E
:1034100087F87D30D7F8D43093F8F230D7F8D4203D
:10342000B82101FB03F3134403F5D0731B7A87F82B
:103430007E3007F17C03D7F8D0001946112206230D
:1034400004F0F8F90346002B04D0FF23C7F8EC3052
:1034500001F0B5BE07F14403D7F8D00019464FF28A
:103460001E02072304F0E6F90346002B04D0FF23D5
:10347000C7F8EC3001F0A3BE01F0A1BE3B685B6869
:10348000D7F8D42092F8F220D7F8D410B82000FB57
:1034900002F20A4402F5D072127A1A6001F08FBE6D
:1034A000D7F8D4300122C3F81422D7F8D000002175
:1034B0001022002304F0BEF90BE0D7F8D43003F556
:1034C0000573D7F8D800194600224FF47A7309F033
:1034D000FDFDD7F8D430D3F81432012BEDD03B6882
:1034E0005B68D7F8D42092F8C02052B21A6001F07D
:1034F00066BED7F8D4300022C3F84822D7F8D000EF
:1035000000214FF2F102002304F094F90346002B4E
:103510000BD1D7F8D43003F51273D7F8D800194679
:1035200001224FF47A7309F0D1FDD7F8D430D3F8E3
:103530004832002B04D1FF23C7F8EC3001F03FBE26
:103540003B685B68D7F8D42092F840221A713B6838
:103550005B68D7F8D420D2F844221A60D7F8D43068
:103560000022C3F8482201F02ABED7F8D430002246
:10357000C3F850223B685A683B681B89D7F8D000D3
:1035800011464FF2F60204F055F90346002B0BD119
:10359000D7F8D43003F51473D7F8D80019460122B0
:1035A0004FF47A7309F092FDD7F8D430D3F8503243
:1035B000002B04D1FF23C7F8EC3001F000BE3B68BC
:1035C0005B681A46D7F8D43003F5137310461946D2
:1035D000032216F044F9D7F8D4300022C3F8502261
:1035E00001F0EDBDF0AC0100F4AC0100F8AC01005D
:1035F000FCAC01003B685A683B681B8913441B689C
:10360000C7F8C430D7F8D4300022C3F854223B683E
:103610005A683B681B89D7F8D00011464FF2F30275
:1036200004F008F90346002B24D1D7F8C430002B4E
:1036300025D0D7F8D43003F51573D7F8D80019463C
:1036400001224FF47A7309F041FDD7F8D430D3F852
:103650005432002B03D1FF23C7F8EC300FE0D7F82A
:10366000D430D3F85832002B09D0FF23C7F8EC3000
:1036700001F0A5BDFF23C7F8EC3001F0A0BD01F0BB
:103680009EBDD7F8D43007F1440403F526752868A9
:103690006968AA68EB680FC4286920603B685B68AA
:1036A000C7F8C030D7F8C0301B78032B07D197F884
:1036B0004F3023F00803DBB287F84F3006E097F86D
:1036C0004F3043F00803DBB287F84F3007F1440373
:1036D000D7F8D00019460822142304F0ABF80346AB
:1036E000002B05D04FF0FF33C7F8EC3001F067BD79
:1036F000D7F8D43003F526731D4607F144040FCCE8
:1037000028606960AA60EB602068286101F057BDFD
:10371000D7F8D83004331846FCF7F6FFD7F8D8307E
:10372000D7F8DC209A60D7F8D83004331846FDF774
:103730001FF801F044BDD7F8D83004331846FCF721
:10374000E3FFD7F8D830D7F8DC205A65D7F8D8305F
:1037500004331846FDF70CF801F031BDD7F8D4302A
:1037600093F8E030002B16D1D7F8D430D3F88C3052
:103770001846B4494FF25E02022304F05BF8034698
:10378000002B08D1D7F8D430012283F8E0200023A1
:10379000C7F8EC300AE0D7F8D43093F8E030012BCA
:1037A00004D0FF23C7F8EC3001F009BD01F007BDDC
:1037B000FF23C7F8EC30D7F8D400012105F0BCFE98
:1037C0000346002B04D0FF2387F8E23001F0F7BC5A
:1037D000D7F8D43093F8E030012B33D1D7F8DC3070
:1037E0001B68632B2ED9D7F8D4300122C3F8DC2014
:1037F000D7F8DC301B687B64012387F8483001234D
:1038000087F8493007F14403D7F8D00019464FF242
:103810006002062304F00EF80346002B0BD1D7F804
:10382000D430022283F8E020002387F8E23000231E
:10383000C7F8EC3006E0D7F8D4300022C3F8DC201B
:1038400001F0BDBC01F0BBBCD7F8D000D7F8DC104C
:103850004FF22802212303F0EDFF0346002B04D092
:10386000FF23C7F8EC3001F0AABC01F0A8BCD7F8E0
:10387000D43093F8F230D7F8D420B82101FB03F309
:10388000134403F5C47300225A60D7F8D000002116
:103890004FF24702002303F0CDFF0346002B4BD12C
:1038A000D7F8D43093F8F230B82202FB03F303F5D3
:1038B000C473D7F8D42013440433D7F8D80019467A
:1038C000012241F2883309F001FCD7F8D43093F893
:1038D000F230D7F8D420B82101FB03F3134403F5E9
:1038E000C4735B68002B03D1FF23C7F8EC3023E0DF
:1038F0003B685A68D7F8D43093F8F230B82101FB0E
:1039000003F303F5B073D7F8D4100B440B33104610
:103910001946202215F0A3FFD7F8D43093F8F230DF
:10392000D7F8D420B82101FB03F3134403F5C47383
:1039300000225A6001F043BC01F041BCD7F8D430FA
:10394000DA6FD7F8DC301A60D7F8D4301A6FD7F8AE
:10395000DC305A60D7F8D4305A6FD7F8DC309A6030
:10396000D7F8D4309A6FD7F8DC30DA6001F027BC92
:10397000D7F8DC10D7F8D430DB6F1B0F9BB21A4698
:10398000D7F8D430DB6F03F070631B0E9BB2D7F80F
:10399000D400C06F00F47F00000C80B20446D7F85A
:1039A000D400C06F80B2009401900846264915F0FB
:1039B000EBFFD7F8DC3003F11402D7F8D4301B6FDB
:1039C000104622491A4615F0DFFFD7F8DC3003F124
:1039D0002801D7F8D4305B6F1B0F9BB21A46D7F87B
:1039E000D4305B6F03F070631B0E9BB2D7F8D4002A
:1039F000406F00F47F00000C80B20446D7F8D4007A
:103A0000406F80B20094019008460F4915F0BCFF4A
:103A1000D7F8DC3003F13C02D7F8D4309B6F104666
:103A20000B491A4615F0B0FF01F0C9BB3B685A6854
:103A30007B68043310461946062215F010FF01F08A
:103A4000BEBB00BF60D0010004AD010010AD01009D
:103A500018AD0100D7F8D83004331846FCF754FEEF
:103A6000D7F8D430D3F8E430002B0BD0D7F8D430CB
:103A7000D3F8E4301846FEF717FDD7F8D43000220B
:103A8000C3F8E420D7F8D4300022C3F8E820D7F8F0
:103A9000D430D3F8EC30012B04D1D7F8D430002245
:103AA000C3F8EC20D7F8D83004331846FCF760FE92
:103AB00007F1440318460021372215F0F4FED7F829
:103AC000DC3093F82B3087F87830D7F8D43093F87F
:103AD000F230D7F8D420B82101FB03F3134403F5E7
:103AE00088731B7A102B01D1012300E0022387F891
:103AF0007930D7F8DC3093F82C30022B02D1032335
:103B000087F87930D7F8DC3093F82A30012B14D1BC
:103B1000012387F86D30D7F8DC3093F8363087F81A
:103B20007730D7F8DC2007F16E032D32106851682A
:103B300018605960127A1A720FE0D7F8DC3093F8E7
:103B40002A30022B03D1022387F86D3005E04FF0B5
:103B5000FF33C7F8EC3001F032BBD7F8D43093F81C
:103B6000F230D7F8D420B82101FB03F3134403F556
:103B700088731B7A102B54D0D7F8DC3093F82C3094
:103B8000082B06D197F87A3043F00103DBB287F8AF
:103B90007A30D7F8DC3093F82830002B20D0D7F8D3
:103BA000DC20D7F8DC3093F8283007F144010846D0
:103BB00011461A4615F053FED7F8DC2007F16403CE
:103BC00020321068186092889A80D7F8DC30DB8C3D
:103BD000A7F86A30D7F8DC3093F8283087F86C30D3
:103BE000CE4B07F184041D4628686968AA68EB6813
:103BF0000FC4286920604FF6FF73A7F8883007F1DB
:103C00008403D7F8D00019460822142303F012FECB
:103C10000346002B0CD04FF0FF33C7F8EC3001F017
:103C2000CEBA97F87A3043F00103DBB287F87A30E6
:103C300007F14403D7F8D00019464FF27A02372330
:103C400003F0F8FD0346002B05D04FF0FF33C7F813
:103C5000EC3001F0B4BAD7F8D4300122C3F8EC202C
:103C6000D7F8D4300122C3F8342201F0A8BAD7F82B
:103C7000DC3093F87430002B0AD0D7F8D430D3F866
:103C8000EC30012B04D11823C7F8EC3001F097BABF
:103C90000AE0D7F8D430EC33D7F8D8001946002220
:103CA0004FF47A7309F012FAD7F8D430D3F8EC3025
:103CB000012BEED0D7F8D4300022C3F83422D7F845
:103CC000D430D3F8E430002B00F09181D7F8D43011
:103CD000D3F8E830002B00F04881D7F8D430D3F87F
:103CE000E830C7F8BC30D7F8BC301B78002B40F068
:103CF0001781D7F8BC3002337B64D7F8DC30002260
:103D000083F87320D7F8DC30991C7B6C9A1C7B6C91
:103D100093F82230084611461A4615F0A0FD7B6C38
:103D200093F822301A46D7F8DC309A847B6C93F8EB
:103D30002230D7F8DC20134400229A707B6C1B8859
:103D40009AB2D7F8DC301A807B6C93F86830002B7D
:103D500000F0D0807B6CB3F825309BB203F00803F1
:103D6000002B08D0D7F8DC3008229A62D7F8DC3074
:103D70000822DA6220E07B6CB3F825309BB203F0B6
:103D80000403002B08D0D7F8DC3004229A62D7F85D
:103D9000DC300422DA620FE07B6CB3F825309BB292
:103DA00003F00203002B07D0D7F8DC3002229A621E
:103DB000D7F8DC300222DA627B6CB3F823309BB296
:103DC00003F02003002B23D0D7F8DC30032283F844
:103DD0007220D7F8D830DB6A032283F87822D7F82C
:103DE000DC3003F131017B6C03F128027B6C93F82A
:103DF0006830084611461A4615F031FD7B6C93F881
:103E00006830D7F8DC201344002283F83120A7E083
:103E10007B6CB3F823309BB203F00203002B23D05A
:103E2000D7F8DC30022283F87220D7F8D830DB6A6A
:103E3000022283F87822D7F8DC3003F131017B6C61
:103E400003F128027B6C93F86830084611461A4645
:103E500015F005FD7B6C93F86830D7F8DC2013442F
:103E6000002283F831207BE07B6CB3F823309BB2D7
:103E700003F00103002B07D17B6CB3F823309BB216
:103E800003F00403002B2AD0D7F8DC30012283F89A
:103E90007220D7F8D830DB6A012283F87822D7F86D
:103EA000DC3003F131017B6C03F128027B6C93F869
:103EB0006830084611461A4615F0D1FC7B6C93F821
:103EC0006830D7F8DC201344002283F831207B6C63
:103ED00093F82720D7F8DC3083F8302040E04FF00B
:103EE000FF33C7F8EC30D7F8D4300022C3F83422BF
:103EF00001F065B9D7F8DC30002283F87220D7F8DA
:103F0000D830DB6A002283F87822D7F8DC3001222F
:103F10009A62D7F8DC300122DA6221E064D0010035
:103F2000D7F8BC301B78012B1AD1D7F8BC305B789E
:103F3000072B0ED8D7F8BC305B78BA4AD25CD7F8DA
:103F4000DC3083F87320D7F8D4300022C3F8342251
:103F500006E0B5484FF45371B44AB54B11F0A8FFD1
:103F6000D7F8D4300022C3F8E820D7F8D430D3F8FB
:103F7000E4301846FEF798FAD7F8D4300022C3F898
:103F8000E420D7F8D43093F8F230D7F8D420B82111
:103F900001FB03F3134403F588731B7A102B06D13E
:103FA000D7F8D4300022C3F8342201F008B9D7F88A
:103FB000D430D3F81C32012B01D101F000B9D7F86D
:103FC000D430D3F88C30184600210322002303F0AC
:103FD00031FC0346002B15D0D7F8D4300022C3F8AB
:103FE00034224FF0FF33C7F8EC3001F0E8B8D7F8CF
:103FF000D4300022C3F834224FF0FF33C7F8EC303E
:1040000001F0DDB801F0DBB80020FEF763F90346EC
:104010007B647B6C002B04D10323C7F8EC3001F0E8
:10402000CEB8796CD7F8DC301A68D7F8DC309B88CA
:10403000084611461A46FEF727FB7B6C1846FEF72A
:104040004FFC0346172B08DC0323C7F8EC307B6CCE
:104050001846FEF729FA01F0B2B87A6CD7F8DC30CE
:104060000633D7F8D80011461A460BF0B1FA0346CA
:10407000002B08D07B6C1846FEF716FAFF23C7F812
:10408000EC3001F09CB801F09AB8D7F8D43093F82E
:10409000F230D7F8DC20126892B2D7F8D410B820EA
:1040A00000FB03F30B4403F5CC739A80D7F8D430AC
:1040B00093F8F230D7F8D420B82101FB03F313446E
:1040C00003F5CC739B88A7F8443007F14403D7F875
:1040D000D00019464FF24202022303F0ABFB034625
:1040E000002B04D0FF23C7F8EC3001F068B801F0D2
:1040F00066B8D7F8DC301A88D7F8D430A3F8942003
:10410000D7F8DC305A88D7F8D430A3F89620D7F8FF
:10411000D430B3F89430A7F84430D7F8D430B3F89B
:104120009630A7F8463007F14403D7F8D000194677
:104130004FF21B02042303F07DFB01F040B8D7F8D7
:10414000D430D3F8D030002B0AD1D7F8D430394A44
:10415000C3F8D020D7F8D80009F088F801F02FB8BC
:1041600001F02DB8D7F8DC305968D7F8DC301A6880
:10417000D7F8DC301B89D7F8D80009F0E3FB0346F9
:1041800087F8E23097F9E230002B05D1D7F8DC3020
:104190000122DA6001F013B897F9E220D7F8DC3099
:1041A000DA6001F00CB8D7F8DC30DB687B64D7F854
:1041B000DC305A6807F14403D7F8D80011461A4694
:1041C00009F062FC034687F8E23097F9E230002BF1
:1041D00005D17A6CD7F8DC30DA6000F0F0BFD7F8A0
:1041E000DC300022DA6000F0EABFD7F8D8000BF02C
:1041F00071FA03461A46D7F8DC301A8000F0DFBFA8
:10420000D7F8D00000214FF20102002303F012FB87
:104210000346002B04D0FF23C7F8EC3000F0CFBFDB
:1042200000F0CDBFE4CB01001CAD0100ECCB0100E0
:1042300084AD0100892C0000D7F8DC301B7B002BFB
:104240000CBF00230123DBB21A46D7F8D43083F821
:104250001222D7F8DC301A69D7F8D8305A63D7F869
:10426000D43093F8123287F84430D7F8DC305B7BD7
:1042700087F84530D7F8DC2007F14603116819604C
:1042800092889A80D7F8DC2007F14C030632106838
:10429000186092889A8007F14403D7F8D000194635
:1042A0004FF299020E2303F0C5FA0346002B04D007
:1042B000FF23C7F8EC3000F082BF00F080BFD7F8D2
:1042C000D830DB6AD3F8BC20D7F8DC301A6000F0B5
:1042D00076BFD7F8D830DB6A012283F87922D7F885
:1042E000D800D7F8D01000220BF06AF80346C7F8C0
:1042F000EC3000F064BFD7F8D800D7F8D0100BF03E
:1043000031F8D7F8D830DB6AD3F86822D7F8DC3038
:104310005A60D7F8D830DB6AB3F86E22D7F8DC30B1
:104320001A8000F04CBFCA4B1A68D7F8DC301A600C
:1043300000F045BF3B685B68C7F8B830D7F8B830C5
:104340001B88052B06D1D7F8D430012283F8182218
:1043500000F035BF3B685B68D7F8D000194602F023
:1043600061FF00F02CBF3B685B68D7F8D42092F85F
:10437000F220D7F8D410B82000FB02F20A4402F56C
:10438000CC72D2881A8000F01ABF3B685B68D7F8FD
:10439000D42092F8F220D7F8D410B82000FB02F213
:1043A0000A4402F5CC7292881A8000F008BFD7F850
:1043B000D830DB6AD3F88032012B20D1D7F8D8303F
:1043C000DB6A03F52073D7F8D8001946002241F2C2
:1043D000883308F07BFE0346002B0AD0D7F8D8308C
:1043E000DB6A0022C3F88022FF2387F8E23000F066
:1043F000E6BED7F8D830DB6A0022C3F880223B68DB
:104400005A68D7F8D830DB6AD3F8683210461946B4
:104410004FF4007215F023FA00F0D1BED7F8D8306F
:10442000DB6AD3F88432012B14D13B685A68D7F881
:10443000D830DB6AD3F86832104619464FF401725F
:1044400015F00DFAD7F8D830DB6A0022C3F88422C1
:1044500000F0B5BEFF2387F8E23000F0B0BE3B6845
:104460005B68C7F8B430D7F8D4300122C3F81C22F7
:10447000D7F8D43093F8F230D7F8D420B82101FB24
:1044800003F3134403F5887310221A72D7F8B4307B
:104490005B78002B08D0D7F8D000D7F8B4104FF2D3
:1044A0005102022303F0C6F9D7F8D8000AF0DEF86B
:1044B0000346002B02D0FF2387F8E230D7F8D43030
:1044C000022283F8F02000F07ABED7F8D03003F152
:1044D0004A01D7F8DC3003F12002D7F8DC3093F83A
:1044E0006130084611461A4615F0B9F9D7F8DC30A4
:1044F00093F86120D7F8D03083F88B20D7F8D030EC
:1045000003F12A01D7F8DC20D7F8DC3093F86030CB
:10451000084611461A4615F0A2F9D7F8DC3093F890
:104520006020D7F8D03083F88A20D7F8D0302A33EB
:10453000D7F8D00019464FF24802622303F07AF907
:104540000346002B04D0FF2387F8E23000F037BE8B
:1045500000F035BED7F8D4300122C3F81C223B68E6
:104560005B68D7F8D00019464FF23B02052303F0F1
:1045700061F90346002B04D0FF2387F8E23000F0F6
:104580001EBE00F01CBED7F8D830DB6A0122C3F88B
:10459000802207F1080318460021352215F083F91F
:1045A0003B685B681C4607F1080504F1300E2E4697
:1045B0002346186859689A68DB680FC610341035AE
:1045C0007445F4D12B4622461068186012791A718E
:1045D00097F83C30092B03D897F83C300F2B0DD1BE
:1045E000D7F8D43093F8F230D7F8D420B82101FBB3
:1045F00003F3134403F5887310221A7297F83C30C2
:10460000092B03D997F83C30002B0DD1D7F8D430C3
:1046100093F8F230D7F8D420B82101FB03F3134408
:1046200003F5887301221A723B685B68D7F8D000E3
:1046300019464FF29102352303F0FCF80346002B94
:1046400004D0FF2387F8E23000F0B9BD00F0B7BD19
:104650001C57FF1F3B685B6807F140021046194674
:10466000042215F0FCF807F14003D7F8D0001946F2
:104670004FF23E02042303F0DDF80346002B04D082
:10468000FF2387F8E23000F09ABD00F098BDD7F81C
:10469000D00000214FF25D02002303F0CBF8034667
:1046A000002B04D0FF2387F8E23000F088BD00F033
:1046B00086BDD7F8D00000214FF23C02002303F062
:1046C000B9F80346002B04D0FF2387F8E23000F04E
:1046D00076BD00F074BDD7F8D830DB6A0122C3F88C
:1046E0008022D7F8D00000214FF29202002303F07D
:1046F000A1F80346002B04D0FF2387F8E23000F036
:104700005EBD00F05CBD3B685B68D7F8D000194621
:104710004FF238020D2303F08DF80346002B04D02E
:10472000FF2387F8E23000F04ABD00F048BD3B6847
:104730005B68D7F8D00019464FF23902512303F0D5
:1047400079F80346002B04D0FF2387F8E23000F00D
:1047500036BD00F034BD3B685B68D7F8D000194621
:104760004FF29302352303F065F80346002B04D083
:10477000FF2387F8E23000F022BD00F020BD3B6847
:104780005B68D7F8D00019464FF29402092303F072
:1047900051F80346002B02D0FF2387F8E230D7F808
:1047A000D830DB6A0122C3F8802200F008BD3B68E4
:1047B0005B68D7F8D00019464FF25602222303F067
:1047C00039F80346002B04D0FF2387F8E23000F0CD
:1047D000F6BC00F0F4BCD7F8D830DB6A0122C3F88D
:1047E00080223B685B68D7F8D00019464FF254022C
:1047F0000B2303F01FF80346002B04D0FF2387F898
:10480000E23000F0DCBC00F0DABCD7F8D830DB6A6C
:104810000122C3F88022D7F8D00000214FF2D7023E
:10482000002303F007F80346002B04D0FF2387F88A
:10483000E23000F0C4BC00F0C2BC3B685B68C7F863
:10484000B030D7F8B03001225A713B685B68D7F8B6
:10485000D00019464FF253023B2302F0EBFF034610
:10486000002B04D0FF2387F8E23000F0A8BC00F052
:10487000A6BC3B685B68C7F8AC3007F14403184638
:104880000021372215F00FF81E2387F87830022315
:1048900087F879300123C7F8A830D7F8A830012B62
:1048A00011DDD7F8D430D3F85832012B0BD1D7F81B
:1048B000AC301B889BB2002B05D14FF0FF33C7F8FB
:1048C000EC3000F07CBCD7F8A830012B15DDD7F810
:1048D000D430D3F85832012B0FD1D7F8AC301B8825
:1048E0009AB2D7F8D430B3F854329A4205D04FF088
:1048F000FF33C7F8EC3000F062BCD7F8AC3093F867
:104900003130042B03D1022387F86D301EE0D7F835
:10491000AC3093F83130022B05D0D7F8AC3093F897
:104920003130032B0DD1012387F86D30C34A07F1D5
:104930006E031168526819605A60082387F877304F
:1049400004E0FF2387F8E23000F039BCD7F8AC3040
:104950001B7C002B1BD0D7F8AC3003F11102D7F829
:10496000AC301B7C07F14401084611461A4614F08E
:1049700076FFD7F8AC2007F16403033210681860A3
:1049800092889A80D7F8AC301B7C87F86C30AC4B9F
:1049900007F184041D4628686968AA68EB680FC49B
:1049A000286920604FF6FF73A7F8883007F1840369
:1049B000D7F8D00019460822142302F03BFF97F8DD
:1049C0007A3043F00103DBB287F87A3007F1440311
:1049D000D7F8D00019464FF27A02372302F02AFFA7
:1049E000EDE33B685B68C7F8AC3007F14403184659
:1049F0000021352214F057FFD7F8AC301C4607F1E0
:104A0000440504F1300E2E462346186859689A680A
:104A1000DB680FC6103410357445F4D12B4622469E
:104A20001068186012791A7107F14403D7F8D000A2
:104A300019464FF29E02352302F0FCFEBFE33B68AD
:104A40005B68D7F8D00019464FF2A802012302F0A4
:104A5000F1FED7F8D830DB6A0022C3F88022D7F8FD
:104A6000D830DB6A0022C3F88422A8E33B685B6885
:104A7000D7F8D000194602F073FEA0E33B685B68EC
:104A8000D7F8D000194602F03FFE98E33B685B6818
:104A9000D7F8D000194602F0DFFD90E307F1440398
:104AA00018460021082214F0FEFE3B685B681B7864
:104AB0007B64052387F84830002387F84B3007F1E3
:104AC0004403D7F8D00019464FF27902082302F0C8
:104AD000B1FE0346002B03D0FF23C7F8EC306EE392
:104AE0006DE3D7F8DC301B7887F8443007F14403D6
:104AF000D7F8D00019464FF27202042302F09AFE52
:104B00000346002B03D0FF23C7F8EC3057E356E3EE
:104B10003B685B68D7F8D00019464FF2D6020423F1
:104B200002F088FE0346002B03D0FF23C7F8EC30C9
:104B300045E344E33B685B68D7F8D00019464FF281
:104B4000F502012302F076FE0346002B03D0FF237B
:104B5000C7F8EC3033E332E33B685B68D7F8D0004A
:104B600019464FF47042032302F064FE0346002B03
:104B700003D0FF23C7F8EC3021E320E3D7F8DC3083
:104B8000002B03D1FF23C7F8EC3011E0D7F8DC107D
:104B90003B681A89D7F8DC300633D7F8D8000AF01A
:104BA000E7FA0346002B03D0FF23C7F8EC3006E3F7
:104BB00005E33B685A683B681B89D7F8D00011466B
:104BC0002E2202F037FE0346002B03D0FF2387F886
:104BD000E230F4E2F3E2D7F8D4300022C3F8302216
:104BE0003B685A683B681B89D7F8D00011464FF2E2
:104BF000DC0202F01FFE0346002B02D0FF2387F8E1
:104C0000E230D7F8D43003F50C73D7F8D800194642
:104C1000012241F2883308F059FAD0E23B685B6820
:104C2000D7F8D80019460AF03FFB0346002B03D003
:104C3000FF2387F8E230C2E2C1E200BFE454FF1F65
:104C400064D001003B685A683B681B89D7F8D000E4
:104C500011464FF2EA0202F0EDFD0346002B03D0AD
:104C6000FF2387F8E230AAE2A9E23B685A683B6872
:104C70001B89D7F8D00011464FF2EB0202F0DAFDA3
:104C80000346002B03D0FF2387F8E23097E296E239
:104C9000D7F8D4300022C3F83C223B685A683B68FE
:104CA0001B89D7F8D00011464FF2F00202F0C2FD86
:104CB0000346002B03D04FF0FF33C7F8EC303B68BE
:104CC0005B68C7F8A430D7F8A4305B68184603F0D7
:104CD00041F8C7F8A000D7F8A030002B04D14FF05E
:104CE000FF33C7F8EC302FE0D7F8A0309B69002BDA
:104CF00026D1D7F8D430D3F83C32002B0BD1D7F8DB
:104D0000D43003F50F73D7F8D8001946012241F2C9
:104D1000883308F0DBF9D7F8D430D3F83C32012BD4
:104D200009D1D7F8D430D3F85832002B03D100235F
:104D3000C7F8EC3008E04FF0FF33C7F8EC3003E081
:104D4000182387F8E2303AE239E2D7F8DC301B78F2
:104D5000013B002B1EDBD7F8DC301B78013B032B1B
:104D600018DCD7F8DC309B78042B13D8D7F8DC306C
:104D70005B780A2B11D0D7F8DC305B781A2B0CD07B
:104D8000D7F8DC305B78052B07D0D7F8DC305B78C0
:104D90000D2B02D04FF0FF3313E2D7F8DC301B7835
:104DA000013BDAB2D7F8D410D7F8CC30B82000FBEA
:104DB00003F30B4403F590739A710023C7F8E830AE
:104DC000D6E0D7F8DC305B78052B04D0D7F8DC30A0
:104DD0005B780D2B36D1D7F8E82013461B0113441E
:104DE000D7F8CC20B82101FB02F2134403F59073ED
:104DF000D7F8D420134403F10801D7F8DC20D7F802
:104E0000E8309B0013445A68D7F8DC305B780846DA
:104E100011461A4614F023FDD7F8DC305978D7F83C
:104E2000D400D7F8E820D7F8CC4013461B01134430
:104E3000B82202FB04F21344034403F590730A46BC
:104E4000DA7190E0D7F8DC305B785B08D9B2D7F83C
:104E5000D400D7F8E820D7F8CC4013461B01134400
:104E6000B82202FB04F21344034403F590730A468C
:104E7000DA71D7F8E82013461B011344D7F8CC2089
:104E8000B82101FB02F2134403F59073D7F8D42044
:104E90001344083318460021102214F004FD0023A7
:104EA000C7F8E43057E0D7F8DC20D7F8E8309B00AB
:104EB00013445A68D7F8E43013441B785BB21846A1
:104EC0000AF056FB034687F8E33097F8E330FF2BF0
:104ED00002D14FF0FF3374E1D7F8E43003F001035F
:104EE000002B04D197F8E3301B0187F8E330D7F8A3
:104EF000E4305808D7F8E4305908D7F8D440D7F848
:104F0000E820D7F8CC5013461B011344B82202FB0B
:104F100005F2134423440B4403F590731A7A97F86F
:104F2000E3301343D9B2D7F8D440D7F8E820D7F804
:104F3000CC5013461B011344B82202FB05F2134464
:104F40002344034403F590730A461A72D7F8E430F9
:104F50000133C7F8E430D7F8DC305B781A46D7F86D
:104F6000E4309A429FD8D7F8E8300133C7F8E830E8
:104F7000D7F8DC309B781A46D7F8E8309A423FF6EB
:104F800020AF1CE1D7F8DC301B78013B002B05DD9E
:104F9000D7F8DC301B78013B042B02DD4FF0FF33E8
:104FA0000FE1D7F8DC301B78042B2CD8D7F8DC3095
:104FB0001B785A1E13461B011344D7F8CC20B82186
:104FC00001FB02F2134403F59073D7F8D420134485
:104FD0000733C7F89C30D7F89C301B78042B0ED8C9
:104FE000D7F8DC305968D7F89C305A1CD7F89C3079
:104FF0001B78084611461A4614F031FC07E0FF23DF
:10500000C7F8EC3003E0FF23C7F8EC30D7E0D6E078
:10501000D7F8DC301B68C7F89830D7F89830002BE9
:1050200003D0D7F89830042B02D94FF0FF33C8E0F3
:10503000D7F89830DBB2013BDAB2D7F8D410D7F802
:10504000CC30B82000FB03F30B4403F590739A7146
:10505000B5E0D7F8D420D7F8CC30B82101FB03F362
:10506000134403F590739B791A46D7F8DC301A6025
:10507000A5E0D7F8DC30002B03D1FF23C7F8EC30D4
:1050800011E0D7F8DC103B681A89D7F8DC3003331D
:10509000D7F8D80008F0BCFF0346002B03D0FF234D
:1050A000C7F8EC308BE08AE03B685B68D7F8D0004B
:1050B000194602F037FC0346002B03D0FF2387F884
:1050C000E2307CE07BE0D7F8D4304FF0FF32C3F819
:1050D0008C22D7F8D00000214FF2F702002302F013
:1050E000A9FB0346002B0BD1D7F8D43003F523736B
:1050F000D7F8D800194601224FF47A6307F0E6FF8B
:10510000D7F8D430D3F88C32002B07D04FF0FF33D0
:10511000C7F8EC302D4814F02FFC50E00023C7F8FE
:10512000EC302B4814F028FC49E0D7F8D4300022AA
:10513000C3F89422D7F8D430264AC3F890223B68AB
:105140005A683B681B89D7F8D00011462E2202F01E
:1051500071FB0346002B0BD1D7F8D43003F5257330
:10516000D7F8D8001946012241F2883307F0AEFF84
:10517000D7F8D430D3F89432012B07D04FF0FF3357
:10518000C7F8EC30144814F0F7FB18E00023C7F818
:10519000EC30124814F0F0FB11E0114B1B68002BAF
:1051A00008D00F4B1B687868396898470346C7F8E2
:1051B000EC3004E0FF23C7F8EC3000E000BFD7F884
:1051C000EC301846F437BD46F0BD00BF88AD010095
:1051D00098AD010063538263A8AD0100C4AD010026
:1051E0007C02FF1F90B5A3B000AFF860B9607A6091
:1051F0000023C7F884307B68C7F88030FB68002B39
:1052000004D1FF23C7F8843000F043BCBB68812B76
:1052100019D17B681B88112B15D17B685B681B68D3
:10522000F8681946FDF700FCC7F88400D7F8843009
:10523000002B06D0FB68DB681846FDF725FD00F063
:1052400028BC00F026BCFB68DB68FB67FB6F002B0B
:1052500004D1FF23C7F8843000F01BBCFB6FDB6A6E
:10526000BB67BB6FD3F88C307B67BB6F93F8F230B2
:1052700087F87330BB68212B0BD1BB6FD3F8843018
:10528000012B01D1012300E000237A68136000F0B4
:1052900000BCBB6FD3F88430002B07D1DD4B1B6BF8
:1052A000002B03D11223C7F88430F2E3F86F0121F9
:1052B000002209F00DFF0346002B01D0FF23EAE393
:1052C000BB68013B802B00F2E08301A252F823F07F
:1052D000E55400001B580000295500004959000002
:1052E0008D5500008B5A0000635800008B5A000057
:1052F0008B5A000065590000215600008B580000B1
:105300008B5A00008B5A00008B5A00002F5A000065
:105310008B5A00008B5A0000AB590000CF59000097
:105320008B5A00008B5A00008B5A00008B5A0000E9
:10533000915900008B5A00008B5A00008B5A0000D4
:105340008B5A00008B5A00008B5A00001F5A000035
:105350008B5A00008B5A00008B5A00008B5A0000B9
:105360008B5A00008B5A00008B5A00008B5A0000A9
:105370008B5A00008B5A00008B5A00008B5A000099
:105380008B5A00008B5A00008B5A00008B5A000089
:105390008B5A00008B5A00008B5A00008B5A000079
:1053A0008B5A00008B5A00008B5A00008B5A000069
:1053B0008B5A00008B5A00008B5A00008B5A000059
:1053C0008B5A00008B5A00008B5A00008B5A000049
:1053D0008B5A00008B5A00008B5A00008B5A000039
:1053E0008B5A00008B5A00008B5A00008B5A000029
:1053F0008B5A00008B5A00008B5A00008B5A000019
:105400008B5A00008B5A00008B5A00008B5A000008
:105410008B5A00008B5A00008B5A00008B5A0000F8
:105420008B5A00008B5A00008B5A00008B5A0000E8
:105430008B5A00008B5A00008B5A00008B5A0000D8
:105440008B5A00008B5A00008B5A00008B5A0000C8
:105450008B5A00008B5A00008B5A00008B5A0000B8
:105460008B5A00008B5A00008B5A00008B5A0000A8
:105470008B5A00008B5A00008B5A00008B5A000098
:105480008B5A00008B5A00008B5A00008B5A000088
:105490008B5A00008B5A00008B5A00008B5A000078
:1054A0008B5A00008B5A00008B5A00008B5A000068
:1054B0008B5A00008B5A00008B5A00008B5A000058
:1054C0008B5A00008B5A00008B5A00008B5A000048
:1054D000D5540000F8687968FDF70AFC0346C7F860
:1054E0008430D6E297F87330BA6FB82101FB03F32A
:1054F0001344F0335B68002B08D1F86F08F0F8FF15
:10550000FB6FDB6A002283F8782208E0F86F09F06D
:10551000ADF80346002B02D0FF23C7F88430BB6FE1
:105520000022C3F83422B4E27B681B68022B04D04B
:10553000032B1AD0012B0CD023E097F87330BA6FED
:10554000B82101FB03F3134403F5887301221A7297
:105550001BE097F87330BA6FB82101FB03F31344D3
:1055600003F5887302221A720FE097F87330BA6F4E
:10557000B82101FB03F3134403F5887310221A7258
:1055800003E01723C7F8843000BF82E27B689B6882
:10559000202B41D897F873307A689268B96FB82099
:1055A00000FB03F30B44F0335A6097F87330BA6F83
:1055B000B82101FB03F31344F0335B68002B1AD0CE
:1055C00097F87330B82202FB03F3F033BA6F134439
:1055D00003F108017B681A6897F87330B86FB82434
:1055E00004FB03F30344F0335B68084611461A4694
:1055F00014F035F94DE297F87330B82202FB03F34B
:10560000F033BA6F1344083318460021202214F0F7
:105610004AF93EE24402FF1F1723C7F8843038E2FC
:10562000FB6FDB6A7A681268D2B283F878227B68F3
:105630001B68032B00F2EC8001A252F823F000BF9C
:1056400051560000D75600005D570000B7570000C4
:1056500097F87330BA6FB82101FB03F3134403F5D5
:105660008C7301225A7297F87330BA6FB82101FB1C
:1056700003F3134403F58C7301229A7297F8733085
:10568000BA6FB82101FB03F3134403F590730122B1
:105690001A7197F87330BA6FB82101FB03F3134402
:1056A00003F58C7301221A7297F8733097F8732000
:1056B000B96FB82000FB02F20A4402F58C725268FE
:1056C00022F04002B96FB82000FB03F30B4403F54E
:1056D0008C735A60A0E097F87330BA6FB82101FB61
:1056E00003F3134403F58C7301225A7297F8733055
:1056F000BA6FB82101FB03F3134403F58C73022244
:105700009A7297F87330BA6FB82101FB03F3134410
:1057100003F5907302221A7197F87330BA6FB821AB
:1057200001FB03F3134403F58C7303221A7297F8F9
:10573000733097F87320B96FB82000FB02F20A4467
:1057400002F58C72526822F04002B96FB82000FB5B
:1057500003F30B4403F58C735A605DE097F87330E4
:10576000BA6FB82101FB03F3134403F58C730822CD
:105770005A7297F87330BA6FB82101FB03F31344E0
:1057800003F58C7301221A7297F8733097F873201F
:10579000B96FB82000FB02F20A4402F58C7252681D
:1057A00042F04402B96FB82000FB03F30B4403F549
:1057B0008C735A6030E097F87330BA6FB82101FBF0
:1057C00003F3134403F58C7310225A7297F8733065
:1057D000BA6FB82101FB03F3134403F58C73012264
:1057E0001A7297F8733097F87320B96FB82000FBDE
:1057F00002F20A4402F58C72526842F04402B96F18
:10580000B82000FB03F30B4403F58C735A6003E0EC
:105810001723C7F8843000BF3BE1D7F880305B68BE
:105820001A6840F66B139A4217D9D7F880305B6834
:105830001A6840F6B4139A420FD897F87330D7F825
:1058400080205268126892B2B96FB82000FB03F34F
:105850000B4403F5CC739A801BE11723C7F88430FF
:1058600017E17B681B689BB23B8207F11003786FDE
:1058700019463222022301F0DDFF0346002B03D03C
:10588000FF23C7F8843004E103E17B689B68402B69
:1058900003D91723C7F8843055E097F87330BA6FEF
:1058A000B82101FB03F31344F0335B68002B03D1F1
:1058B0001223C7F8843046E097F87330BA6FB821E6
:1058C00001FB03F31344F0335B68DBB287F87030FD
:1058D00097F87330B82202FB03F3F033BA6F134426
:1058E00003F1080297F87330B96FB82000FB03F397
:1058F0000B44F0335B6807F11001084611461A4665
:1059000013F0ADFF7B689B68DBB287F871307B6872
:105910005A6897F8713007F1100120310846114696
:105920001A4613F09CFF07F11003786F19464FF2E7
:105930004802622301F07EFF0346002B03D0FF23C1
:10594000C7F88430A5E0A4E0FB6FDB6A002283F88F
:105950007922F86F796F7A6809F032FD0346C7F84B
:10596000843096E07B681B68002B04D0BB6F01225B
:1059700083F8F02003E0BB6F022283F8F020BB6FB6
:10598000F033786F19461222012301F053FF80E0B3
:10599000BB6F93F8F030012B03D17B6801221A60B2
:1059A00077E07B6800221A6073E0F86F796F09F086
:1059B000D9FCFB6FDB6AD3F868227B685A60FB6F07
:1059C000DB6AB3F86E321A467B681A6061E097F8BA
:1059D0007330BA6FB82101FB03F31344F0335B68F3
:1059E0001A467B689A607B68596897F87330B822CA
:1059F00002FB03F3F033BA6F134403F1080297F884
:105A00007330B86FB82404FB03F30344F0335B68CE
:105A10000133084611461A4613F021FF39E0FB6FA7
:105A2000DB6A93F878321A467B681A6031E097F89F
:105A30007330BA6FB82101FB03F3134403F5887385
:105A40001B7A1A467B681A6097F87330BA6FB821D0
:105A500001FB03F3134403F588731B7A022B07D071
:105A6000102B09D0012B0BD17B6802221A600BE0AE
:105A70007B6801221A6007E07B6803221A6003E05A
:105A80001723C7F8843000BF03E0FF23C7F8843032
:105A900000BFD7F8843018468C37BD4690BD00BF94
:105AA00080B592B000AFF860B9607A603B6007F1F2
:105AB0001403F86879683A6809F0F8F90346002B8E
:105AC00040F0E38097F83E20BB681A7097F84020BA
:105AD000BB689A70BB68083307F118021068186039
:105AE00092889A8097F83F20BB685A70BB6803F190
:105AF0000E0197F83F3007F114020A3208461146AA
:105B00001A4613F0ACFEFB8A03F01003002B01D001
:105B1000012300E00023BA68D370FB8A03F020035E
:105B2000002B01D0012300E00023BA689371FB8AA7
:105B300003F00303012B03D1BB680222DA710BE0EF
:105B4000FB8A03F00303022B03D1BB680122DA7145
:105B500002E0BB680122DA71BA8ABB689A8097F8C2
:105B6000423003F00403002B08D0BB6893F82E30BA
:105B700043F00403DAB2BB6883F82E2097F8423072
:105B800003F00803002B08D0BB6893F82E3043F0D5
:105B90000803DAB2BB6883F82E2097F8423003F08E
:105BA0000203002B08D0BB6893F82E3043F00203A9
:105BB000DAB2BB6883F82E2097F8443003F0040370
:105BC000002B08D0BB6893F8303043F00403DAB2FE
:105BD000BB6883F8302097F8443003F00803002BAB
:105BE00008D0BB6893F8303043F00803DAB2BB68E2
:105BF00083F8302097F8443003F00203002B08D0DC
:105C0000BB6893F8303043F00203DAB2BB6883F824
:105C1000302097F8433003F00403002B08D0BB6812
:105C200093F82F3043F00203DAB2BB6883F82F20D9
:105C300097F8433003F01003002B08D0BB6893F8AB
:105C40002F3043F00103DAB2BB6883F82F2097F8B6
:105C5000453003F00203002B08D0BB6893F83130C5
:105C600043F00203DAB2BB6883F8312097F845307D
:105C700003F00803002B08D0BB6893F8313043F0E1
:105C80000103DAB2BB6883F831204837BD4680BDD6
:105C900080B592B000AFF860B9607A603B6007F100
:105CA0001403F86879683A6809F000F90346002B94
:105CB00040F0E880B8680021322213F0F4FD97F834
:105CC0003E20BB681A7097F84020BB689A70BB688A
:105CD000083307F118021068186092889A8097F8C4
:105CE0003F20BB685A70BB6803F10E0197F83F3044
:105CF00007F114020A32084611461A4613F0AFFDA6
:105D0000FB8A03F01003002B01D0012300E00023E5
:105D1000BA68D370FB8A03F02003002B01D0012363
:105D200000E00023BA689371FB8A03F00303012BA0
:105D300003D1BB680222DA710BE0FB8A03F0030394
:105D4000022B03D1BB680122DA7102E0BB68012299
